:020000040800F2
:1000000000000120B1560008E5560008E55600083A
:10001000E5560008E5560008E55600080000000017
:1000200000000000000000000000000075550008FE
:10003000E5560008000000001B5600087B5600082B
:10004000E5560008E5560008E5560008E5560008A4
:10005000E5560008E5560008E5560008E556000894
:10006000E5560008E5560008E5560008E556000884
:10007000E5560008E5560008E5560008E556000874
:10008000E5560008E5560008E5560008C5300008AA
:10009000C9300008E5560008C52F0008E5560008DD
:1000A000E5560008E5560008E5560008E556000844
:1000B000E5560008E5560008E5560008E556000834
:1000C000E5560008E5560008E5560008E556000824
:1000D000E5560008E5560008E5560008E556000814
:1000E000E5560008E5560008E5560008E556000804
:1000F000E5560008E5560008E5560008E5560008F4
:10010000E55600080000000000000000E556000869
:10011000E5560008E5560008E5560008E5560008D3
:10012000E5560008E5560008E5560008E5560008C3
:10013000E5560008E5560008000000000000000039
:10014000E5560008E5560008E556000800000000E6
:10015000000000000000000000000000000000009F
:10016000E5560008E5560008E5560008E556000883
:10017000E5560008E5560008E5560008E556000873
:10018000E5560008E55600080000000000000000E9
:10019000E556000810B5054C237833B9044B13B16C
:1001A0000448AFF300800123237010BD300200200B
:1001B00000000000746C00080C4B43B10C480D4962
:1001C00010B5AFF300800C48036823B910BD0A488E
:1001D000036833B97047094B002BF7D0BDE81040D6
:1001E0001847064B002BF5D0184700BF0000000051
:1001F000746C0008340200202C0200200000000073
:1002000043680B7043681B0A4B70C3888B70C379BB
:10021000CB7083680B7183681B0A4B7143898B71A8
:10022000C37ACB71082070470B7843604A7843EA61
:10023000022343608A7843EA02434360CA7843EA70
:10024000026343600B7983604A7943EA0223836047
:100250008A7943EA02438360CA7943EA026383608E
:1002600008207047004870478566000800487047BE
:100270006466000800487047F6650008004870474B
:10028000D565000800487047C265000800487047FF
:10029000A1650008004870470F66000800487047D5
:1002A0008065000843680B701A0A4A701A0C1B0E0E
:1002B0008A70CB70042070470B684360042070473D
:1002C00000487047B466000800487047936600080D
:1002D000014B42681A60704710030020014B4268CE
:1002E0001A607047140300200368184708B10B68B0
:1002F00003607047704770B5054600F10C04204656
:10030000FFF7DAFF6B692046BDE870401847806947
:100310007047000000487047B46600080048704706
:100320009366000890F8E805704700007FB5134B0E
:100330001968134B8DF80D101A688DF80E200323E1
:100340008DF8143000238DF816308DF81530012308
:1003500002934B11C2F3022003F03803034363F00E
:100360003F038DF80C30059B009302AB0ECB054884
:1003700004F06AFD07B05DF804FB00BF1003002025
:10038000140300204C020020C3681A6810B41468DB
:100390000A468168184623465DF8044B1847C3682F
:1003A00010B504460BB19B689847204610BD00006D
:1003B00038B50546064B45F8183B044604F091FC59
:1003C0002846FFF7ECFF204604F0F8FE204638BD33
:1003D000306B000810B50446FFF7EAFF204605F031
:1003E00069F8204610BD38B5CB6804460D460BB100
:1003F0005B689847EB68E360204638BD013800230E
:1004000021FA03F20833202B00F8012FF8D17047AE
:1004100043682DE9F0410B7043681B0A4B70C38899
:100420008B70C379CB700D460A1D044600216068AD
:100430008142A2EB050302F104020FD2E36853F8F4
:10044000213002F8043C180A02F8030C180C1B0EA9
:1004500002F8020C02F8013C0131E8E72269EA5493
:100460002169EA18090A5170618A9170E17CD170A2
:1004700004332B44002122699142A3EB050603F1CA
:1004800004030FD2A26952F8212003F8042C100AA9
:1004900003F8030C100C120E03F8020C03F8012CE5
:1004A0000131E8E7E369AB55E269AB19120A5A700A
:1004B000E28B9A70E27FDA7004360027E3699F428C
:1004C00014D2636A53F8270005F01BFE80460146EC
:1004D000A819FFF793FF636A043653F82710A81989
:1004E000424605F01DFB46440137E7E73046BDE8CC
:1004F000F081F8B50E46037906F8013B05468068A1
:100500000F4605F0FEFD044601463046FFF776FF34
:100510002246A968781D05F003FB601DF8BD83889D
:100520002DE9F0410B7083881B0A4B7005468068EB
:100530000C4605F0E6FD07460146A01CFFF75EFFEE
:100540003A46A968A01D05F0EBFAE86805F0D9FD68
:1005500007F10608064601460A3704EB0800FFF7D4
:100560004DFF3246E968E01905F0DAFA286905F02E
:10057000C8FD3E4401460746A0190436FFF73EFF7A
:100580003A46A01929693E4405F0CAFA6B69A35599
:1005900034441A0A62701A0C1B0EA270E370301DEC
:1005A000BDE8F08110B500230360013911F8012F77
:1005B00002FA03F4026808332243202B0260F5D1CB
:1005C00010BD37B50C4611F8013B0371054601A873
:1005D000FFF7E8FF019B621D581D111B884204D9DB
:1005E00012F8011B02F8021CF7E72344002204342E
:1005F0001A71AC6003B030BDF0B50B7883804A78D7
:1006000085B043EA022383800C460646023101A8E6
:10061000FFF7C8FF019FA31DBD1D1A1B954204D9FA
:1006200013F8012B03F8022CF7E7E31900225A71A3
:10063000631DB360611902A8FFF7B4FF2B1D029D73
:1006400007F10A021D442244111B8D4204D912F8FD
:10065000011B02F8021CF7E76119013B2344002249
:1006600001F8012C03A8F360FFF79CFF0398043501
:10067000284463191A1B904204D913F8012B03F87C
:10068000022CF7E72218013D0023254402F8013C23
:10069000356193785178D2781B0443EA0123215CB9
:1006A0000B4343EA02630430736105B0F0BD2DE9EA
:1006B000F34143680D689D4204460E4604D9A900E3
:1006C000C06805F0C3FCE0606560321D0021606811
:1006D0008142A2EB060302F1040213D212F8023C9B
:1006E00012F8030C1B0443EA002312F8040C034322
:1006F00012F8010C43EA0063E068A36040F821307F
:100700000131E4E7F218F15C95785078D2782D0445
:1007100045EA00250D431F1D236945EA02659D42F8
:1007200004D9A900A06905F091FCA0612561F31925
:10073000002122699142A3EB060503F1040313D2C1
:1007400013F8022C13F8030C120442EA002213F8E7
:10075000040C024313F8010C42EA0062A0696261D2
:1007600040F821200131E4E77319725D9F785978D0
:10077000DB783F0447EA0127174347EA0367E36949
:100780009F4205F1040504D9B900606A05F05EFCDA
:100790006062E7610027B846E3699F421AD2711987
:1007A00001A8FFF7FFFE2B1D019DF2181D44911BB0
:1007B000A94204D212F8011B02F8021CF7E77219D1
:1007C000013B02F8018C626A3344236242F827300D
:1007D0000137E1E7284602B0BDE8F08130B585B0C9
:1007E0000446094B019300230293039354F8EC3B16
:1007F00001AA1B680A2105469847204604F0DDFA45
:10080000C5F8FC0005B030BDB46400082DE9F04126
:1008100086B02B4B009300222A4BADF804200546EE
:10082000029303930493059200F20C5400F5AE6614
:100830004FF400772368BBB158689A68ADF804207C
:100840001A68036802929B68984723680390586867
:100850000368DB68984721682B68049005971B683C
:1008600009696A46284698470434B442E2D105F241
:10087000D4564FF400772068C8B14368ADF804300F
:100880008368029303689B68984703902068036815
:10089000DB6898472B6804902068D3F800800368D1
:1008A00005975B6898476A4601462846C047043466
:1008B000A642E0D1012385F8E83506B0BDE8F08115
:1008C000CC64000848670008F0B585B000F1EC057D
:1008D0001F4B0193044600232846029303930E46C0
:1008E00004F06BFAD4F8FC203146871A01A8FFF710
:1008F0009BFC029B4FF47A76B7FBF6F2134402930B
:1009000006FB1272039B134F284607FB0232039229
:1009100004F053FA029AB0FBF6F3013AD21A0399A3
:10092000C4F800210C4A06FB13030A4407FB1323F7
:10093000C4F8043104F5827104F5807000F0A2FB64
:10094000284604F03AFAC4F8F00505B0F0BD00BF3F
:10095000B464000840420F0000CA9A3B37B54D4CC2
:100960004D4B2046002540F8043B0423032202217E
:100970008DE828004FF4807300F072FC04F1EC0065
:1009800004F031FA4FF46143C4F8E83004F1EC00AC
:1009900004F0E7F9414B84F8E855C4F8FC35C4F895
:1009A0000056C4F80856C4F80C56C4F81456C4F8D7
:1009B0001856C4F820562A4663190435642DC3F826
:1009C0000C25F9D100231946E2180433642BC2F830
:1009D0007015F9D100231946E2180133B3F5007FF1
:1009E00082F80C11F8D100231D46E2180133B3F54B
:1009F000007F82F80C53F8D1294A2A492548C4F8C7
:100A0000085104F039FD284C28480C220B2104F031
:100A10009FFA234A2649254804F02EFD204604F07B
:100A2000AFFB244B65621E4A23492360204604F035
:100A300023FD1C2200212148214C05F096F80521B8
:100A40001E4800F03EFD1F4B1F49204A59612048B7
:100A5000186001211D61DA6099619C601D4B18606E
:100A600099611D481D49586199601D481D491D61C6
:100A7000DA601D4B80E8240081E824001B4A1A60DC
:100A800058601D611A4A1B4B1A6059601D6103B002
:100A900030BD00BF340300202C650008FC64000852
:100AA0009401002035100008B80900204C020020F5
:100AB000D94E0008306B0008B1030008180300206D
:100AC0005C65000880090020D10200081465000858
:100AD000406500089C090020DD02000864650008EC
:100AE0000003002008030020580900206C6500085E
:100AF000766500086C0900202DE9F04700F1EC084C
:100B00000446404604F059F9D4F8F03542F6F8228C
:100B1000C31A934284BF002384F8E835D4F8D4354F
:100B2000054633B1D4F8F43583423CBF0023C4F802
:100B3000D43504F10409002604F58677D4F8083189
:100B4000ABB9484600F0ACFAE8B994F8E80560B1F2
:100B5000D4F8EC3540F6C412EB1A934204D920467F
:100B6000FFF73CFEC4F8EC550020BDE8F087404696
:100B700004F023F9D4F80831401B9842E1D96FF012
:100B80000100BDE8F087484600F094FA0028DCDB5D
:100B9000D4F8E435D4F8D4A50344BAF1070FC4F867
:100BA000E43512D1D4F8E0355A1C2344C4F8E025CA
:100BB00083F80C01D4F8D835013BC4F8D835002BA4
:100BC000BCD10823C4F8D435B8E7BAF1000F14D16A
:100BD000FF2807D10123C4F8D43505F11403C4F864
:100BE000F435ABE7404604F0E8F841F28833401BA7
:100BF0009842A3D984F8E8A5C1E7BAF1010F0DD155
:100C0000FE2801D10223DDE794F8E835C4F8D46565
:100C1000002B93D12046FFF7E1FD8FE7BAF1020FD9
:100C200009D1C4F8D805C4F8E0650323C4F8D43565
:100C3000C4F8E40582E7BAF1030F07D1D4F8D83538
:100C400003EB0020C4F8D8050423BBE7BAF1040F76
:100C50000BD15A42D2B2DBB258BF5342FF2B01D163
:100C60000523AFE7C4F8D46568E7BAF1050F03D1EF
:100C7000C4F8DC050623D9E7BAF1060F0BD1D4F886
:100C8000DC3503EB00200723C4F8D435C4F8DC05B9
:100C9000D4F8D83593E7BAF1080F7FF44FAF5A4232
:100CA000D2B2DBB258BF5342FF2BC4F8D4657FF4F5
:100CB00045AFD4F8DC356BB92046FFF78FFD2046F1
:100CC000FFF7A4FDC4F8EC55C4F8F0554FF0FF3021
:100CD000BDE8F0870A2B04D139462046FFF7F4FD22
:100CE0002CE7062B08D1394604F2FC50FFF7DFFC55
:100CF000012384F8F83521E70B2B02D184F8E8654D
:100D00001CE7F83354F8230000283FF417AF0368BA
:100D100039461B68984711E72DE9F04F864C4FF490
:100D2000E131C4F8E8108DB0201D04F072F9002301
:100D300004F26C52C4F8D435C4F8D835C4F8E035A0
:100D4000C4F8DC35114651F8040F002840F0DF806C
:100D500003F5AE70794944F8201064334B600023EA
:100D600052F8041F002940F0D78003F5AE71744A91
:100D700044F8212064335360724A0023114651F82D
:100D8000040F002840F0CD806F4904EB83007D33D1
:100D9000C0F80C158B60CC60002352F8041F0029AA
:100DA00040F0C480694A04EB83017D33C1F80C250F
:100DB0009360D46066496748DFF87CB1DFF89481BE
:100DC00004F02FF803216348002404F071F804278D
:100DD0004FF47A7004F04EFA8DF82C7040238DF8A1
:100DE0002E408DF82D4001268DF80C300B9B089677
:100DF00008AD0994009395E80E0056488DF80D4013
:100E00008DF80E408DF80F4004F01EF88DF82C7010
:100E1000039B8DF82E408DF82D4009930B9B08966F
:100E2000009395E80E004B484B4E4C4F04F00CF8E5
:100E30004B4B049304A94B4B07932846FFF7D3FA77
:100E40004948FFF7ACFA29464748FFF7CCFA41F288
:100E50008831464803F031FF2846FFF7A0FA04A87E
:100E6000FFF79DFA74607C605846FFF745FE10223C
:100E70000021284604F079FEDFF8DC90DFF8C8A0F6
:100E8000099408238DF82C300A9400222946404604
:100E900003F0F9FF0028E7D09DF82C30032BF4D1A4
:100EA0009DF824309A09032AEFD19DF8251013F0FC
:100EB000200F18BF6FEA41514FEA431218BF6FEA83
:100EC000515102F4E0620A4372609DF8262013F04B
:100ED000040F18BF6FEA42524FEA032318BF6FEAAC
:100EE000525203F4E0631343494650467B60FFF7D8
:100EF0004BFA1A491548FFF747FA1D4B5A68116813
:100F00001A6811420CBF9B68DB681A60BDE70133A9
:100F1000192B7FF418AF22E70133192B7FF420AF90
:100F20002AE70133192B7FF42AAF35E70133192B58
:100F30007FF433AF3EE700BF340300208009002078
:100F40009C0900203C080020580900206C09002062
:100F500040420F004C020020000300200803002044
:100F60002D03000850650008D0090020B8090020B2
:100F700018030020F0B5632985B004460E4603DD52
:100F800090F8E855002D4DD0136804F213311B681A
:100F900010469847FF2384F80C33FE23C0F3072242
:100FA00084F80D33C3B284F80E331344DB4384F862
:100FB000116346F3072684F80F2384F8103384F86E
:100FC000126304F2113105220023861DB24204DCB3
:100FD00011F8015B01322B44F8E700F108052044C9
:100FE000DB43B5F5007F80F813330CDC04F5437761
:100FF0003E460434F31B9D4214DD16F8011B2046C7
:1010000000F09EF9F6E7094B019303238DF80830B1
:10101000074B0393236801AA1B68072120469847C2
:101020004FF0FF35284605B0F0BD00BFE46400086E
:101030002B66000810B5044B044640F8043B00F052
:10104000C3F8204610BD00BF2C6500080748084AB9
:1010500008B5121A002104F088FD04F0CBF904F061
:10106000D7FC04F0CEF904F009FA00BF30020020EA
:101070005427002008B5012004F000FA08B5FFF756
:10108000F9FF000030B502680D68044CB5FBF4F3BD
:101090001A4404FB135302600B6030BD00CA9A3B34
:1010A000D0F8C020D0F8C400101A18BF0120704733
:1010B0000120704710B5D0F8C420D0F8BC1003460A
:1010C000501CC3F8C400885CD3F8C820D3F8C440CF
:1010D000013AB4FBF2F102FB1142C3F8C42010BD87
:1010E000034610B107C983E807007047704742689C
:1010F0008168036812F0010F4FEA62021CBF885832
:10110000C3588818184730B5044685B000F14C051F
:10111000284602F005FD30B3D4F8D020D4F8D430FE
:101120009A4216D0D4F8D430D4F8CC20591CC4F844
:10113000D410D15CD4F8D830D4F8D400013BB0FB43
:10114000F3F203FB1203C4F8D430284602F0F4FC97
:10115000DEE70023204601226946039303F0D6FF11
:101160006846FFF71CF905B030BDC36810B50446EA
:101170000BB19B689847204610BD000070B506462D
:101180000B4B46F8983B044646B100F1B805B54212
:1011900004D0103D2846FFF702F9F8E704F13800C3
:1011A000FFF7E3FF04F12800FFF7DFFF204670BDE3
:1011B000746B000810B50446FFF7E0FF204604F00A
:1011C00079F9204610BD000030B5134B036085B09F
:1011D00000252A4669460446039503F097FF6846B2
:1011E000FFF7DDF8012269462046039503F08EFFE4
:1011F0006846FFF7D4F804F1CC0000F023F904F1BD
:10120000BC0000F01FF9054B23602046FFF7B6FF36
:10121000204605B030BD00BF54670008446B00088D
:1012200010B50446FFF7D0FF204604F043F92046EE
:1012300010BD000010B586B08DE80C00019B029235
:1012400003930491054B9DF82020059302A903F018
:101250005DFF02A8FFF7A3F806B010BDC466000842
:101260007FB504461D464FF41653089E03F05CFDFF
:1012700020460F4B40F8BC3B294600F0F2F806FB35
:1012800005F104F1CC0000F0ECF80A4B02930023C6
:101290000393009304AB204613E90C002146FFF7AB
:1012A000C9FF2046C4F8DC50C4F8E06004B070BD4B
:1012B000546700081F13000870B5044686B04C3010
:1012C00002F02EFCC0B102AD0122294600262046C4
:1012D000059603F01BFF2846FFF761F82046FFF74D
:1012E00012FF064B029301230396009395E80C002E
:1012F00021462046FFF79EFF06B070BD071100088B
:101300004368026810B55C1C4460D154C3684168EE
:10131000013BB1FBF3F203FB1213436010BD38B580
:1013200000F14C050446284602F0D8FB38B12846A7
:1013300002F0E0FBC1B204F1BC00FFF7E1FF38BDF1
:1013400038B505460C46CC30C9B2FFF7D9FF284660
:10135000FFF7B2FF204638BD2DE9F04107460C46A5
:10136000B1B10D4600F1CC082E4616F8011B21B193
:101370004046FFF7C5FF3546F6E70A214046FFF72E
:10138000BFFF2C1B3846FFF797FF601CBDE8F081BC
:101390000846BDE8F0812DE9F04107460D4691B1C0
:1013A000A2B18C180E4600F1CC08B44205D016F854
:1013B000011B4046FFF7A4FFF7E73846FFF77CFF25
:1013C000601BBDE8F0810846BDE8F0811046BDE82D
:1013D000F08100000EB42DE9F04185B0D0F8DC209A
:1013E00002AFD31D23F0070307F12404ADEB030D77
:1013F00054F8048B02AE05460021304604F0B5FBDC
:101400002246414630467C6004F09CFED5F8DC3034
:10141000834202460CD200905D220848084900F041
:1014200049F900200C37BD46BDE8F04103B07047D4
:1014300031462846FFF7AFFFF4E700BF0F6700080B
:10144000D066000810B50446006808B104F02EF814
:10145000204610BD00214160C2688160006804F030
:1014600084BB38B5044608460D4604F013F8E56021
:1014700020602046FFF7EEFF204638BD38B5044611
:101480000D4603685AB1826813602046012101F0BD
:1014900065FD29462046BDE8384001F05BBDC268C5
:1014A000F2E770B50E460446154601F031FD0136EF
:1014B00006D02A4620460021BDE87040FFF7DEBF77
:1014C00070BD0022FFF7EDBF00487047806700083D
:1014D000014800F00CB800BF8067000838B5036809
:1014E00004461B680D46984763681D6038BD036855
:1014F00070B5DB680446984763685A6823681AB970
:101500009B68BDE8704018475B681568984763683A
:10151000281A00285A6807DC916859601B68002B5C
:10152000EAD050689847E7E7236810681B69BDE870
:1015300070401847F8B506460C461F46154600F0A1
:101540008FF8706884E8A0004368002153B9A36055
:1015500079B9336844601B6928469847BDE8F8406C
:1015600000F094B81A68AA1A002AF0DB19469B68A2
:10157000ECE78C60F2E738B505460C4600F070F8F1
:101580006A685368A3420ED19B6853602A682BB9DE
:1015900093689847BDE8384000F078B81269186839
:1015A0009047F7E71346002BF4D09A689442F9D19C
:1015B000A2689A60EEE703685B68184710B50446B6
:1015C00001300DD110BD9C4209D12046896801F03F
:1015D000C5FF20460021BDE8104002F041B80C31A3
:1015E000B1F900305A1CEED10248BDE8104000F0BD
:1015F00061B800BFCD670008884208B508D0431C19
:1016000006D0013106D0044800F054F84FF0FF3105
:10161000084608BD0146FBE79C670008B1F90030A9
:101620005A1C01D118467047834201D1486870475F
:101630000C31F3E7421C10B5044607D0FFF7EEFF6C
:10164000431C044602D1024800F034F8204610BD85
:10165000AD670008EFF31080C04300F00100704751
:1016600008B5FFF7F7FF72B6064B1A6822B980F08B
:101670000100054AC0B210701A681A6801321A6077
:1016800008BD00BFEC090020E809002008B5074BA1
:101690001A6852B1FFF7DEFF1A68013A1A601B6838
:1016A0001BB9034B1B7803B962B608BDEC090020D7
:1016B000E80900200FB4012008B503F0DFFE08B5EB
:1016C000FFF7CEFF962003F0D5FD962003F0D2FD64
:1016D000F8E701F06CBC000008B5024C236898479D
:1016E000FCE700BF9801002030B502788C78436891
:1016F000013AD2B213B19D78A54207D2022A4B60BB
:10170000416006D803B19960886030BD18465B68B7
:10171000F0E700238B6030BD02784368013A5968D6
:101720004160022A4FF0000205D809B188605A6072
:101730009A60184670475A60FBE70000034B5A68EE
:101740004260002282605860704700BF7C1E00200B
:10175000104BDA6810B58AB19A8ADC688A420CD3D9
:10176000C460D860C468036104B12061521A92B2A7
:101770008282998A8A1A9A8210BD3CB900248A1AF8
:10178000C460D86003619A82848210BDA38A1A441F
:101790002346E2E7941E00202DE9F041174DEB6847
:1017A00053B1AB8A164FDFF85C80013BAB82002659
:1017B000AA8A0AB9EC680CB9BDE8F081A36833B114
:1017C00061685960616809B18B606260A6602146FA
:1017D0003846FFF789FFA38AAB826378042B01BFE9
:1017E000D8F80030E28A9B18A38201236370E36873
:1017F000EB600BB11D61E6602661D9E7941E002005
:101800007C1E0020BC26002083682BB142685A60F1
:1018100042685AB193607047054B5A68904202D1B2
:1018200042685A6070471346002AF6D1704700BFDD
:101830007C1E002010B5846801462CB94378012B2A
:101840000DD1074C03E0A4682378002BFBD0084699
:10185000FFF7DAFF2046BDE81040FFF745BF10BD97
:101860007C1E0020036910B563B1C268DA60C268EB
:101870004AB1998A848A2144998213610023C36002
:101880000023036110BD9A82FAE7000070B4114B87
:10189000DD78EFF31086EFF3108272B69A789542F6
:1018A00011D901329A701A78541CA54208BF00243D
:1018B0001C7006B962B6954207D903EBC20370BC2F
:1018C000586099607047002EF4D0022070BC00F080
:1018D00029B800BFDC20002008B50B4800F0B2FC9E
:1018E0000A4B18600A4800F0ADFC0A4B18600A4821
:1018F00000F0A8FC094B186004F08AF800210846A3
:10190000BDE8084003F07DBD2C680008642100207C
:1019100028680008F809002024680008F009002061
:10192000FFF7DABE10B5044600F0ECFB2146024694
:10193000BDE810400148FFF7BDBE00BFEC670008DE
:1019400003F0BABD0B4A0C4B0C4830B41A60C2F11C
:10195000005303F58033B3F5E07F194628BF4FF4F9
:10196000E071074D074C01605B1A1A442A6023603E
:1019700030BC7047542700206C1E0020FC0900205A
:10198000000A0020681E002000F040FDFFF7DAFF8B
:101990000348002100F0DEFC00F036FBFEE700000B
:1019A0009C010020024B4FF0FF31186800F068BC2A
:1019B000F8090020014B186800F08ABCF8090020E3
:1019C000836A9B0804BF224B1B88F0B5056B08BFD8
:1019D0009B0805EB8302540748BF043A4FF080761A
:1019E00002E94200A2F14004A2F14406A2F10C0770
:1019F0004FF0000E46F804EFBE42FBD1C66942F834
:101A0000206C41631249C4620968C90017D5112BC3
:101A100015D9103B6FF007015B084B43A3F1380168
:101A20000A444FF0CC30214691420BD108331C447C
:101A3000231F9D423CBF4FF0CC3344F8043C054B80
:101A40002B60F0BD41F8040C41F8080DECE700BF35
:101A500034680008A52E5AE290F82520C36A12B116
:101A60006033196070472033FBE710B590F82540CC
:101A7000C36A1CB1603383E8060010BD2033FAE767
:101A8000054B1B7823B9054B4FF080521A60704705
:101A9000034B01221A707047541A002004ED00E035
:101AA000551A002038B51A4B1A4C18680123437098
:101AB000FFF744FE6578A3783BB917486570FFF7D8
:101AC0002BFEBDE8384000F07BBD04EBC503586831
:101AD00002789AB9198900F0BBF9E37801359D4283
:101AE00008BF0025EFF31083EFF3108272B6A278DF
:101AF000013AA270002BDED162B6DCE7012A03D1E5
:101B0000996800F033F9E8E701F0B8F8E5E700BFBD
:101B100074260020DC2000207C1E0020084B1A6860
:101B2000084B1A6000225A60072243F8042C064A28
:101B3000136843F07F4313604FF0FF30704700BFDE
:101B40004C68000814E000E020ED00E07047000061
:101B500008B50B4B186801234370FFF7EFFD00F049
:101B6000ADF9084A136801331360FFF715FE00F062
:101B7000AFFC0548FFF7D0FDBDE8084000F020BDF0
:101B800074260020BC2600207C1E0020064B1A680C
:101B9000136BD26A934203D81A68044B9A4202D05C
:101BA0000120FFF7BFBE704774260020A52E5AE221
:101BB000002ABBBF22F000420732033222F00702A4
:101BC000A8BF22F0030210B5B4BF10230C2392B1BA
:101BD000D4188C420FD8014403445442416003603E
:101BE000826021449818814202D300510346F9E7EC
:101BF0000020186010BD012010BDEFF3108372B6F5
:101C0000026803F001030AB11168016003B962B60A
:101C10001046704781420DD3436899420AD2EFF3D0
:101C2000108372B602680A60016013F0010003D1EC
:101C300062B67047012070470020704701231039B9
:101C400003708908002343708370436003814381DC
:101C50008381C1817047000070B5858904461646AE
:101C6000002D38D043891A1D013350F822200A6014
:101C7000C2899BB29A42438104BF002343814368D7
:101C8000F3B14378022B1BD1FFF746FD0021054637
:101C9000FFF7E2FE2389E9691A1D013344F8221097
:101CA000E2899BB29A42238108BF0023284608BFDD
:101CB0002381FFF7D7FD284600F09CFC002070BD73
:101CC000EFF31080EFF3108372B6013DA581002879
:101CD000F4D162B670BD4AB14268094B42B119688D
:101CE000FFF702FD0821304600F0A8FC012070BD7E
:101CF0001B6843605A60986001234370F2E700BF9D
:101D000074260020C2898089101A704708B5FFF731
:101D1000BDFDBDE80840FFF7B3BE838910B504469A
:101D20000BB34389043350F823300B604378022B04
:101D300004D10021FFF7AAFDFFF7A2FEEFF3108305
:101D4000EFF3108272B6A289013AA28103B962B69A
:101D50006389E28901339BB29A42638101D10023F6
:101D60006381042010BD184610BD0000436870B5A3
:101D700004460E46002B4BD04578022D20D0032D73
:101D80000AD0012D61D1FFF7C7FC0446324610216D
:101D9000FFF76BFE65700EE00846FFF72EFF054665
:101DA000002852D02046FFF7B7FC29460446FFF72B
:101DB00053FE012363702046FFF754FD214622E0C5
:101DC000FFF7AAFC00210546FFF746FE2389E969D3
:101DD0001A1D44F82210EFF31082EFF3108172B64F
:101DE000A1890131A18102B962B6E28901339BB2B6
:101DF0009A42238104BF0023238101236B7028466C
:101E0000FFF730FD29461148BDE87040FFF76CBC74
:101E10008089E189884213D223891A1D44F82260FF
:101E2000EFF31082EFF3108572B60130A08102B992
:101E300062B601339BB2994208BF0023238170BD73
:101E40000320BDE87040FFF76DBD70BD7C1E002013
:101E500010B5038B42781943062A04460183438B4D
:101E600015D133EA010219D121EA03012183204669
:101E7000FFF7F8FC012320466370628B0821FFF70F
:101E8000F4FD21460648BDE81040FFF72DBC052AA9
:101E900004D111EA030201D04283E5E710BD00BF7F
:101EA0007C1E0020034B00221A60034A1268DA806D
:101EB000704700BF602600203068000808B50E4B50
:101EC0005A680E4B196891420D4905D01A60DA889C
:101ED0000868013A02449A8098880A8890420AD198
:101EE000002205481A60FFF717FCBDE808400146CC
:101EF0000148FFF7F9BB08BD7C1E002060260020CA
:101F0000BC2600200B4A136830B5002443B9036097
:101F1000816013B19D68691A996044B1206030BD39
:101F20009D68A942F3D31C46491B1B68EEE710606D
:101F300030BD00BF70260020C0B1431C11D00C4B37
:101F4000984211D80B4B1B684FF47A715A1E01FB53
:101F50000020B0FBF3F34FF6FE70834206D898B230
:101F600070474FF6FF7070474FF6FE70704700BF26
:101F700000093D00E867000838B1830704D1037801
:101F8000002B18BF0020704700207047B0B50E4DE1
:101F9000287800AFA8B90D4C236893F8241000F0FE
:101FA0006FFB2368DA78FF2A03D1DA6A203282F3E2
:101FB000098862680AB984E80C0000F019FD012361
:101FC0002B700020B0BD00BF6D26002074260020BD
:101FD000014B1878704700BF6D26002010B5EFF355
:101FE000108434B9EFF305841CB9EFF31484E407CB
:101FF00002D4034B187810BDDFF808C000DF10BD15
:102000006D260020D11F000890B589B000AFEFF316
:102010001083002B37D1EFF30583002B33D1FFF76B
:10202000DDFF28B9194C246814B1646804B1A047D5
:10203000EFF3148404F00304022C18D0032C1CD0FA
:10204000012C1ED007F1200484F30988104C247859
:10205000E40710D5022484F31488BFF34F8FBFF335
:102060006F8FDFF830C000DF2437BD4690BD084CCD
:102070002478E407F5D40324EDE7054C2478E4073D
:10208000EFD5FF20F0E78220EEE700BF5C260020BE
:10209000166800088D1F000870B50B4616460246EC
:1020A00010B90024204670BD00680028F9D0B2F9AC
:1020B0000440E51CADB2062DF3D8D168C1B1126958
:1020C000043444EA012100F019FB0028E9D00A4B4E
:1020D0000A4A013853F82040E36A5A63084B1B68E8
:1020E00043B19B6833B13146E0789847E063D9E764
:1020F0000A46E5E7E663D5E7C0200020A1220008F4
:102100005C26002008B500F0B3FA18B10138024B84
:1021100053F8200008BD00BFC020002010B5FFF715
:102120002BFF044670B1084B1B681BB1DB680BB179
:10213000C06B9847E07800F037FBFF280CBF812088
:10214000002010BD802010BD5C26002008B528B1FD
:10215000FFF7F2FE00F08EFD402008BD08BD000034
:1021600010B5EFF3108434B9EFF305841CB9DFF830
:102170000CC000DF10BD822010BD00004D21000802
:10218000830705D138B1436901691B681846704758
:1021900000231946FAE70346FBE7000010B50446A2
:1021A0000846DFF80CC000DF84E80300204610BDBD
:1021B0008121000810B548B1046824B1237823B9FF
:1021C000204600F05BFC204610BD002010BD70B51D
:1021D00010F0030405460E4611D180B10378032B9D
:1021E0000DD10846FFF7A8FE0146284600F014FD71
:1021F000012806D1002E14BFC120812070BD80208F
:1022000070BD204670BD820708B50AD148B1037879
:10221000032B06D100F090FCFF280CBF812000208A
:1022200008BD802008BD10B510F0030407D130B1FF
:102230000378032B03D100F029FC204610BD802039
:1022400010BD000070B50546EFF3108494B9EFF3AC
:1022500005867EB9EFF31484E40706D4064C24788F
:102260001CB9BDE87040FFF7A5BF2846DFF80CC0D9
:1022700000DF70BD002070BD6D260020B521000874
:1022800010B5EFF3108434B9EFF305841CB9DFF80F
:102290000CC000DF10BD822010BD0000CF2100085F
:1022A000084808B54FF0FF310068FFF7E9FFDFF895
:1022B00018C000DF0446FFF743FB2046DFF80CC0E0
:1022C00000DFFEE768260020052100081D21000828
:1022D00010B5EFF3108434B9EFF305841CB9DFF8BF
:1022E0000CC000DF10BD822010BD000007220008D6
:1022F0002DE9F04180460F461646EFF3108404BBEB
:10230000EFF30583D3B9EFF31483DB0706D40E4B49
:102310001B781BB9BDE8F041FFF7BEBE0B4D4FF077
:10232000FF312868FFF7ACFF404639463246DFF8F8
:1023300020C000DF04462868FFF7CAFF2046BDE83A
:10234000F0810024FAE700BF6D26002068260020F7
:10235000992000080022FFF7CBBF000010B5EFF373
:10236000108434B9EFF305841CB9DFF80CC000DF2A
:1023700010BD822010BD00002722000810B50446C1
:1023800060B1016851B1406848B1037833B9043194
:10239000890089B2FFF752FC606810BD002010BDB3
:1023A00038B5114C23780BB900F0A8FA0F4B2578FB
:1023B0001B68FF229A708DB929460D48FFF7DEFF92
:1023C0000C4B2A46186029460B48FFF765FE0B4B5D
:1023D00018600B48FFF736FF0A4B18600123237083
:1023E000094B0020187038BD6C2600207426002090
:1023F0001C6800086021002038680008542600206E
:1024000050680008682600206D26002010B5EFF304
:10241000108474B9EFF305845CB9EFF31484E40716
:1024200003D4BDE81040FFF7BBBFDFF80CC000DFEE
:1024300010BD822010BD0000A12300082DE9FF413E
:102440000C46804618B30378012B25D10846FFF7C8
:1024500073FD02A902464046FFF7FEFB012811D199
:102460000020002C0246034618BF40200299044673
:102470000D4616461F462046294632463B4604B0C6
:10248000BDE8F0810020024603461020EEE78024DC
:10249000054606460746EEE7002580242E462F46D1
:1024A000E9E770B50E461446054660B15AB903789F
:1024B000012B08D1FFF726FC38B128463146FFF73B
:1024C00025FC204670BD802070BD812070BD0000BD
:1024D000F8B5114E34682CB1A368104F013BA360CE
:1024E000A26802B1F8BD2568386835602146FFF75B
:1024F000D8FF10B10420FFF715FA6379012B07D13B
:10250000E1682046FFF7FEFC002DEBD02C46E7E704
:1025100001232371F8E700BF70260020602100200E
:102520007FB504461646084601B122B180232360D8
:10253000204604B070BD0B78012BF7D102A9FFF73C
:10254000ECFB042808BF102301AD14BF01960193D2
:1025500095E8070084E80700EAE7000038B504467C
:102560001546EFF3108010B9EFF3058028B12A4625
:102570002046FFF7D5FF204638BD08461146DFF854
:102580000CC000DF84E80700F5E700003D240008E8
:102590007FB50A4C21684FF0FF3203A8FFF7DEFF3A
:1025A000039B102BF6D1049901A8FFF7F7FD019BBF
:1025B000002BEFD002989847ECE700BF6021002085
:1025C000054B586002234370044B1B681BB11B6909
:1025D0000BB1C06B18477047742600205C260020A2
:1025E00008B50348FFF798F8BDE80840FFF7E8BFD3
:1025F0007C1E002070B5044618B9BDE87040FFF796
:10260000EFBF0C4EA278306883789A424FF00105F4
:1026100008D9FFF793F833685D702046BDE8704035
:10262000FFF7CEBF657021460348BDE87040FFF755
:102630005BB800BF742600207C1E002038B50D4614
:10264000014680B14FF6FF739842074C02D02068D4
:10265000FFF77EF8236805485D70FFF75DF8BDE879
:102660003840FFF7ADBF38BD742600207C1E002027
:10267000024B186800B1C078704700BF7426002074
:1026800010B5A8B9194B1B68997083F82410184825
:1026900043689B788B4201D8002010BD134C216801
:1026A000FFF722F8236801225A70FFF799FFF3E73A
:1026B000104B1B88984217D801380F4B53F8204015
:1026C00094B10A4BA1701B6884F824109C42DED0A0
:1026D0002046FFF7AFF86378012BDDD10448FFF700
:1026E0001BF8FFF787FFD7E7FF2010BD74260020F7
:1026F0007C1E002018680008C02000202DE9F0474B
:1027000011F0FF0F0D468046234816469A4608BF33
:102710000135FFF772FA044620B94FF00009484628
:10272000BDE8F0871D4B06631B881D4E280AA0627A
:1027300000218B4201F10109EFD006EB89020F461F
:1027400052F8042C4946002AF3D1EDB2012384F853
:102750000390C4F81CA0C4F838A022706370A57060
:1027600084F824506260A260E26022612262A28248
:10277000E2822283628384F8252018B90948FFF792
:102780003CFA206320464146FFF71AF9204646F8F6
:102790002740FFF72FFFC2E78824002018680008B1
:1027A000C0200020B01E00202DE9F84F4D4D18B17B
:1027B0002B68DB78984241D12C68DFF83C810023FC
:1027C000637002F0ACFEE062FFF7E0F92B681C6A70
:1027D0000127A4B92A684449D3784448013B41F809
:1027E0002340116BFFF716FA296841480C63FFF785
:1027F00011FA2C60FFF7F4FE2046BDE8F88F6368FD
:10280000B3B12046FEF788FF00210646FFF724F902
:102810003046FFF727F8777031464046FEF764FFF1
:10282000E368326A6780A660E26034621C46D0E7E3
:10283000E2686380A360E3601446CAE72D4B1B88FF
:1028400098424DD8284B471E994653F82760002ED2
:1028500046D03046FEF7D8FF3046FFF703F8DFF8E2
:1028600098B0346A4FF0010AB4B9316B1F4849F887
:102870002740FFF7CFF9314634631D48FFF7CAF907
:102880001D48296843689A788B789A42B4D9012305
:102890004B70FEF729FFADE76368DBB12046FEF71A
:1028A0003BFF00218046FFF7D7F84046FEF7DAFFEE
:1028B00088F801A041465846FEF716FFE368D8F8AD
:1028C0002020A4F802A0C4F80880E260C8F82040E4
:1028D0001C46C9E7E2686380A360E3601446C3E76F
:1028E000FF2489E774260020C0200020B01E0020AD
:1028F00088240020186800087C1E002038B52C4B66
:102900002C491A880023184693424DD32A4B2B4852
:1029100019882B4C4022FFF74BF92A4B2A481A887A
:102920002A4B42F000421968FFF742F9284B1988F8
:10293000284B08221868FFF73BF9FF230025E370B6
:102940002148A562012363702570A57084F8245086
:102950006560A560E56025612562A582E582258325
:10296000658384F82550FFF748F91B49206320460A
:10297000FFF726F8194B04221A705D60184B1A7085
:10298000DD601D619D82174B20461C600223637031
:10299000FFF716FE144A154B12781D705D70DA7041
:1029A000BDE83840FFF77EBA41F823000133ABE7BA
:1029B00018680008C0200020E46700088824002070
:1029C0007C26002034680008B01E0020E067000864
:1029D000E6670008F4090020211900087C1E002089
:1029E000941E00207426002015680008DC200020BA
:1029F00008B51E4B1A6842F47F021A601B681B025E
:102A000003F07F43DB43B3FA83F3194A1948126892
:102A10000168DBB2C3F10803C2F30222934298BFFC
:102A2000531C6FF0807202FA03F303F07F4321F02E
:102A30007F4213430360FFF771F80F4B00281860C3
:102A400012DB00F1604000F56440FF2202701A685A
:102A500053099B0003F1604303F5614302F01F0239
:102A6000012101FA02F21A6008BD00BF20ED00E06A
:102A70000CED00E01CED00E058260020032303705D
:102A80000023438043608360C3607047F8B5438888
:102A900004469BB18068036A9C4228D1E3680362C4
:102AA00090F82430026A52BB82789A4206D0837032
:102AB0001F4B1B68984201D0FEF7BCFE1D4F01263C
:102AC000656825BB1B4843686BB1194E9A7831681D
:102AD0008B789A4207D9FEF707FE336801225A70B5
:102AE0002846FFF787FD00202070F8BD1346002B15
:102AF000D6D0DA689442F9D1E268DA60D0E751685A
:102B000019B189788B4238BF0B46D268CBE7204693
:102B1000FEF702FE00210546FEF79EFF2846FEF75F
:102B2000A1FE6E7029463846FEF7DEFDC8E700BFFD
:102B3000742600207C1E00202DE9F84343880546BA
:102B4000002B63D0324F81683A6891425ED1013BDD
:102B50009BB243801BB100242046BDE8F8830B6A7A
:102B6000984229D1C3680B6291F824300C6A5CBB8F
:102B70008B706A68DFF89C80002A3BD02846FEF7FD
:102B8000CBFD21460646FEF767FF3046FEF76AFE9C
:102B9000336AEB604FF001093968D8F80430A5F8C2
:102BA0000290AE6035628A789B789A4214D33046A0
:102BB000FFF720FDD0E71346002BD5D0DA68954209
:102BC000F9D1EA68DA60CFE762681AB19278934285
:102BD00038BF1346E468CAE74046FEF785FD314634
:102BE0004046FEF781FD3B6883F8019086F801902E
:102BF0002046DDE7D8F8042092789A42ABD94046C7
:102C0000FEF772FD3B6801225A70F1E7FF24A3E74B
:102C1000742600207C1E0020438870B504460E46B2
:102C2000134D43B92A688260116AC1601062013392
:102C30006380002070BD80682A689042F7D081B11F
:102C4000937882789A4202D28370FEF7F3FD62682D
:102C50004AB129682046FEF747FD09213046FFF7B3
:102C6000EDFC012070BD2B6863605A609C60F4E746
:102C7000742600200321FFF7E1BC0000426810B574
:102C80007AB1FEF749FD0446FEF7ECFD01216170C3
:102C90002046FEF7E1FE21460448BDE81040FEF75D
:102CA00023BD42880132428010BD00BF7C1E00203F
:102CB00070B5134C23681A69950707D5DA68900731
:102CC00004D56FF002021A61FEF702FC23681A694C
:102CD000510713D5DA68520710D56FF00402094E78
:102CE0001A615D6A3368EB1AB3F57A7F06D301F097
:102CF00017FD236805F57A729A63356070BD00BFD1
:102D0000C0260020681A002030B589B001A903A8A8
:102D100001F0CCFB01F09AFB244B0190DA69244CC2
:102D200042F00102DA61DA6902F001020292029ACB
:102D30001A6942F001021A611A6922F001021A614D
:102D4000069A4FF0804323604FF0FF33E360194B46
:102D50004ABBB0FBF3F001380025606014482561E0
:102D6000A560656101F056FD13491C2000F0D2FFFB
:102D7000124B0F484FF080521A60294601F09AFD1D
:102D800004210B4801F096FD23680D4A596A116031
:102D9000126802F57A729A63DA68284642F00402F1
:102DA000DA6009B030BD4000D3E700BF0010024038
:102DB000C026002040420F00B12C000800E100E0D6
:102DC000681A00204FF08043034A1360DA6822F04B
:102DD0000402DA60704700BFC02600204FF0804335
:102DE000034A1360DA6842F00402DA60704700BFF9
:102DF000C026002000B589B0072868D8DFE800F0B9
:102E000004131F2B37434F5B334B5A6942F4003294
:102E10005A615B6903F400330093009B4FF09040CC
:102E200009B05DF804FB2C4B2C485A6942F480220F
:102E30005A615B6903F480230193019BF0E7264B01
:102E400027485A6942F400225A615B6903F400235F
:102E50000293029BE4E7204B22485A6942F4801215
:102E60005A615B6903F480130393039BD8E71A4B01
:102E70001D485A6942F400125A615B6903F4001359
:102E80000493049BCCE7144B18485A6942F480021F
:102E90005A615B6903F480030593059BC0E70E4B01
:102EA00013485A6942F400025A615B6903F4000353
:102EB0000693069BB4E7084B0E485A6942F48032E9
:102EC0005A615B6903F480330793079BA8E70A48BC
:102ED000FEF7F0FB0020A3E70010024000040048CA
:102EE00000080048000C004800100048001400488A
:102EF00000180048001C00485468000810B5002164
:102F0000044604F00F0400F029FB0120A04010BD8E
:102F100070B504464B1C0E46218218D0C1F3031035
:102F2000FFF768FF05463046FFF7E8FF238A084AA7
:102F3000656103F00F03206052F82330A36105F1AF
:102F40001003636005F118032835A360E56070BDC8
:102F500044690008B0F9100000F082BB10B5836925
:102F6000446971B9216893FAA3F2B2FA82F203209C
:102F7000520000FA02F221EA020293FAA3F322605D
:102F800010BD226893FAA3F1B1FA81F193FAA3F389
:102F90000320490000FA01F1B3FA83F322EA0102A7
:102FA0005B00012101FA03F31343236010BD08B550
:102FB000FFF708FF0121002000F0CCFEBDE808402B
:102FC000FFF70CBF384B5A692DE9F041374CD20757
:102FD00023602AD59868364F9968364E9A68364DE0
:102FE0003840B84201EA060104BF01279F60B142A0
:102FF00008BF2D4B02EA050204BF4FF480769E60A5
:10300000AA4202BF284B4FF480359D60284B98425E
:1030100005D0284B994202D0274B9A4205D1274B25
:10302000274A1B681068012198472368DA685B69A2
:10303000970707D09E0705D5204B214A1B681068CB
:1030400000219847236899695A695B698D0709D5FA
:10305000900507D5190405D5184B194A1B68106847
:1030600005219847226896695569526916F0040649
:1030700005F4806508D03DB1120405D50F4B104A08
:103080001B6810680721984723685B6956B14DB1EA
:103090001B0407D5094B0A4A1B6810680221BDE8CA
:1030A000F0411847BDE8F081006400406C1A002030
:1030B000030000040003000800000310B01A002001
:1030C000AC1A0020FFF77EBFFFF77CBF034B1960EF
:1030D0004168034B43F82120704700BFB01A00201D
:1030E000AC1A00200268536923F4064323F013034B
:1030F0005361024B002143F822107047AC1A0020A4
:103100000268094B9A420DD103F5D6331A6942F091
:1031100000721A611A6922F000721A61DA6922F0EB
:103120000072DA61704700BF00640040F8B50D46D8
:10313000044601F08BF91823B0FBF5F01921B0FB20
:10314000F3F386089BB2B34215D34FF0FF33002B45
:1031500022681CDD116841F0010111605168C90746
:10316000FCD5D361136823F0010313605368DB07B8
:10317000FCD40120F8BD01339BB2DF4303FB0112F5
:103180001625904205D0013D3A44FAD1DBE70020F4
:10319000F8BD084901EBC50251F835105268090421
:1031A000120502F4E00201F470210A43C3F309039B
:1031B0001343CCE78C68000884B030B504AC84E8D5
:1031C0000E0004689DF81E20A36858013AD4A36835
:1031D0001B0139D4A06810F080502FD002200001CC
:1031E0002318D3F8805105F00105C3F880519DF8EC
:1031F0001D505DBBD3F8805142EA41512943C3F8C9
:103200008011D3F8841121F00F01C3F884119DF8C7
:103210001C10D3F8842101F00F0111432218C3F8C8
:1032200084110599C2F888110699C2F88C11D3F857
:10323000802142F00102C3F880210120BDE8304026
:1032400004B070470020CAE70120C8E742EAC10184
:10325000D3F8805141F00401D0E730B50468E0684C
:1032600010F003003AD01301E018D0F8B051C5F3C4
:1032700080054D739DBBD0F8B0516D0D0D60D0F839
:10328000B051D0F8B401234400F00F000873D3F814
:10329000B8010871D3F8B801000A4871D3F8B80131
:1032A000000C8871D3F8B801000EC871D3F8BC01C6
:1032B0000872D3F8BC01000A4872D3F8BC01000CB4
:1032C0008872D3F8BC31C5F340051B0E8D73CB72E9
:1032D0004AB9E36843F02003E360012030BDD0F831
:1032E000B051ED08CAE7236943F020032361F4E7F6
:1032F00003681A6842F001021A605A68D007FCD5C8
:103300000139042925D8DFE801F00310181820003E
:10331000DA6922F04042DA6101201A6822F00102E3
:103320001A605A68D207FCD47047DA6942F000424A
:10333000DA61DA6922F08042EDE7DA6942F0804230
:10334000DA61DA6922F00042E5E7DA6942F04042E8
:10335000E1E70020E1E7000030B58BB0012B0E9CC7
:103360002BD80568164805940560002006900120BA
:1033700007909BB949018DE80A005201029203931C
:103380000023049301230893694604F10E030C48BB
:10339000099301F0BBF820460BB030BD4B0B0093F6
:1033A000C900530BD200C9B2D2B241F0040142F0BD
:1033B0000402019102930392E2E70020ECE700BFD0
:1033C0006C1A0020F0B50E4685B004462F493046F1
:1033D0001546FEF72FF92E4907462846FEF72AF92B
:1033E00001463846FEF708F92A4B206098424BD137
:1033F00003F5D6332549DA6942F00072DA61DB69F8
:1034000003F000730393039B002363603046FEF7D1
:10341000D5F81F492846FEF7D1F8721C03D00121C8
:10342000304600F01DF96B1C03D00121284600F046
:1034300017F919482368036000238361C36103629D
:1034400043628362C3628360C3604FF4A02303615D
:103450004FF4E00343610223436001F0B8F810B178
:103460000E48FEF727F90E492046FFF75FFE094A8E
:103470002368934214BF0E230023009300231A46AF
:1034800019462046FFF768FF05B0F0BD9C690008AB
:10349000C0690008006400406C1A002075680008CC
:1034A000A0860100054B186838B901221A60044B48
:1034B0004FF080421A60FFF727BC7047B41A002013
:1034C000C026002008B5044B1B680BB9FFF7EAFFC4
:1034D0004FF08043586A08BDB41A00204FF0804373
:1034E000034A13605863DA6842F00202DA607047F8
:1034F000C02600204FF08043034A1360DA6822F0B0
:103500000202DA60704700BFC0260020034A4FF075
:10351000804313606FF002021A617047C0260020DA
:1035200030B5C36891FAA1F4B4FA84F491FAA1F128
:103530000325B1FA81F1640005FA04F4490023EA95
:10354000040302FA01F11943C16030BD012A02D01F
:10355000022A18BF0022FFF7E3BF00002DE9F04167
:103560003E4B00F00F08C0F303100E4601F00705B4
:1035700053F82840FFF73EFC826894FAA4F3B3FAAC
:1035800083F394FAA4F103275B00B1FA81F107FAFF
:1035900003F322EA03034A0007FA02F21343022D5F
:1035A000836028D0BD4241D0012D3FD00023026866
:1035B00094FAA4F7B7FA87F794FAA4F14FF0030E40
:1035C000B1FA81F17F000EFA07F7490022EA0702FB
:1035D0008B40013D1343012D036005D8436832073A
:1035E0004CBF2343A3434360C6F301122146BDE809
:1035F000F041FFF7ABBFB8F1070FC6F3032717D9A8
:10360000426A230A93FAA3F1B1FA81F193FAA3F380
:103610004FF00F0EB3FA83F389000EFA01F19B000D
:1036200022EA010207FA03F3134343622B46BEE783
:10363000026A94FAA4F3B3FA83F394FAA4F14FF074
:103640000F0EB1FA81F19B000EFA03F3890022EA12
:10365000030207FA01F313430362E7E74469000832
:1036600000F00F021C4B70B5C0F303100D4653F869
:103670002240FFF7BFFB066894FAA4F1B1FA81F388
:1036800094FAA4F259000323B2FA82F28B40334039
:103690005200D340013B012B05D8EB1E022B43689F
:1036A00009D823434360032D08D101222146BDE8F8
:1036B0007040FFF74BBF23EA04034360012DF4D0B1
:1036C000052D01D0022D01D10222EFE72146002273
:1036D000BDE87040FFF724BF446900084309012298
:1036E00000F01F0002FA00F02033044A42F82300E1
:1036F000BFF34F8FBFF36F8F704700BF00E100E053
:103700004368184970225A4310B58B1804688C50CE
:1037100082685A60C2689A600269DA6042691A6116
:10372000026A9A610022A3F85220A3F85020A3F85D
:103730005A20A3F85820B0F91A2001320AD10822E1
:103740005A61184601F079FA58B10748BDE81040AF
:10375000FDF7B0BFB0F9182001320CBF04220C22D3
:10376000EEE710BDD41A002084690008F7B51C4F9D
:10377000054657F8200000282FD07026194C6E43BC
:10378000A359DA69520609D51B68590606D5164BA6
:1037900001211B689847A35940221A6270266E4384
:1037A000A359DA6992060DD51B6898060AD50E4B07
:1037B00057F825001B6800219847A3599B8C9BB2A2
:1037C0000193019B70235D436359DA69110704D5A6
:1037D0009A68D20744BF08221A6203B0F0BD00BF46
:1037E000BC1A0020D41A0020B81A00200020FFF7CD
:1037F000BDBF0120FFF7BABF0220FFF7B7BF03200C
:10380000FFF7B4BF0420FFF7B1BF0000F0B50E46CC
:1038100087B004466A4930461546FDF70BFF6949F3
:1038200007462846FDF706FF01463846FDF7E4FE49
:10383000654B2060984249D103F55843DA6842F459
:103840008042DA60DA6822F48042DA609A6942F4EF
:1038500080429A619A6902F480420192019A1A6B3D
:1038600022F0030242F001021A630023636054490C
:103870003046FDF7A3FE53492846FDF79FFE721C14
:1038800003D001213046FFF7EBFE6B1C03D0012172
:103890002846FFF7E5FE4FF41653A3600023E360CC
:1038A000236163612362268365832046FFF728FF37
:1038B0002268464B9A4207D1454B464801221A607E
:1038C00021464C2202F02CF907B0F0BD3F4B984244
:1038D0001AD103F5E6331A6942F400321A611A6903
:1038E00022F400321A61DA6942F40032DA61DA69EC
:1038F00002F400320292029A1A6B22F4403242F42D
:1039000080321A630123B1E7334B98421AD103F591
:10391000E4331A6942F480221A611A6922F480227F
:103920001A61DA6942F48022DA61DA6902F48022EB
:103930000392039A1A6B22F4402242F480221A6303
:10394000022393E7254B98421AD103F5E2331A6913
:1039500042F400221A611A6922F400221A61DA691B
:1039600042F40022DA61DA6902F400220492049A35
:103970001A6B22F4401242F480121A63032375E793
:10398000174B98427FF473AF03F5E0331A6942F4A2
:1039900080121A611A6922F480121A61DA6942F4FB
:1039A0008012DA61DA6902F480120592059A1A6BC4
:1039B00022F4400242F480021A63042356E700BF57
:1039C000686A0008E46900080038014000440040CB
:1039D000D01A00200027002000480040004C004082
:1039E000005000408160FFF78BBE0000034B196060
:1039F0004168034B43F82120704700BFB81A0020EC
:103A0000BC1A002070B521C8284B98420E4619D127
:103A100027492524702327486B43002A2FD0C258FA
:103A200013684EBB43F020031360204600F072F988
:103A30006209012304F0170403FA04F41E4B43F84F
:103A4000224070BD1D4B984202D11D492624E1E75A
:103A50001C4B984202D11C492724DBE71B4B9842A0
:103A600002D11B493424D5E71A4B984213BF0021D9
:103A7000194935240C46CDE743F04003D4E7C35839
:103A80001A6836B922F020021A601B681A0606D599
:103A900070BD22F040021A601B689B0604D42046C9
:103AA000BDE87040FFF71ABE70BD00BF003801408E
:103AB000ED370008D41A002000E100E00044004087
:103AC000F337000800480040F9370008004C004078
:103AD000FF37000800500040053800084268702396
:103AE0005343034AD358D869C0F34010704700BF0E
:103AF000D41A002010B5446801460846FFF7EEFFCF
:103B00000028FAD07023054AC9686343D358988CBB
:103B100009B9C0B210BDC0F3080010BDD41A00200E
:103B2000426870235343034AD358D869C0F3C01086
:103B3000704700BFD41A002038B5456804462046B7
:103B4000FFF7EEFF0028FAD07023054AE0686B43C8
:103B5000D35810B9C9B2198538BDC1F30801FAE7C5
:103B6000D41A002008B500F019F8BDE8084000F0AC
:103B7000C5BD7FB50F230193022100234FF480625E
:103B800001A8029103930492059300F09DFBB0FA03
:103B900080F0400907B05DF804FB0000104B1149AC
:103BA0005868114A00F00C00042810B501D008280C
:103BB00009D00A605B680D4AC3F30313D25C0B683B
:103BC000D3400B6010BD58685C68DC6AC0F383406A
:103BD000023004F00F040134B2FBF4F24243E8E790
:103BE00000100240B001002000127A00EC6A0008C8
:103BF00010B58AB001230093A0B94FF4803301932C
:103C0000022306934FF48033079300244FF4E0130C
:103C100068460994089300F0ADF830B9FFF7A9FFA2
:103C20000AB010BD4FF4A023E9E72046F8E710B52D
:103C30008AB00323102200930492012302220393EB
:103C40000024069209934FF400424FF46013684633
:103C500001940792089300F08DF818B9FFF789FFD7
:103C60000AB010BD2046FBE708B50120FFF7C0FFF2
:103C700030B9FFF7BDFF18B9FFF7D9FF00B9FEE76C
:103C800008BD00001D4AD2F8883010B543F4700317
:103C90001B4CC2F88830236843F00103236061683D
:103CA000184B0B406360236823F0847323F4803344
:103CB0002360236823F480232360636823F4FE03D6
:103CC0006360E36A23F00F03E362216B0E4B0B404A
:103CD00023630023A3604FF0006393600B4B0C4AF7
:103CE0001A6000F00BFDFFF7BFFF236943F00103EB
:103CF0002361236923F00103236110BD00ED00E07F
:103D0000001002400CC07FF8CCFC00FFB001002086
:103D100000127A0030B50C4CA268A468B4F1006FB0
:103D200013460CD1131F094C094A53F8045F42F89B
:103D3000045FA242F9D1044A4FF00053936010305F
:103D400043F8201030BD00BF00ED00E090010020DE
:103D5000FCFFFF1F064A1369012923F004031361C6
:103D600001D130BF704740BF20BF20BF704700BFA8
:103D700000ED00E003682DE9F347DF07054611D4A5
:103D80002B689E0700F18B802B681C0700F1FE80DA
:103D90002B68580700F14781AA69002A40F0DD81AD
:103DA000002024E0BD4C636803F00C03042B0AD010
:103DB000636803F00C03082B1CD1636803F4C03361
:103DC000B3F5803F16D14FF4003393FAA3F2216884
:103DD00093FAA3F3B3FA83F303F01F03012202FA69
:103DE00003F30B42CCD06B68002BC9D1012002B089
:103DF000BDE8F0876B68B3F5803F1ED1236843F4BC
:103E00008033236000F094FC4FF400368046012795
:103E100096FAA6F3226896FAA6F3B3FA83F303F0B0
:103E20001F0307FA03F31342AAD100F081FCA0EBB1
:103E300008006428ECD90320D9E70BBB236823F4DE
:103E400080332360236823F48023236000F070FC18
:103E50004FF400368046012796FAA6F3226896FAB8
:103E6000A6F3B3FA83F303F01F0307FA03F3134235
:103E700086D000F05DFCA0EB08006428ECD9DAE7FE
:103E8000B3F5A02F236803D143F480232360B5E763
:103E900023F480332360236823F48023B1E77F4C2D
:103EA000636813F00C0F0AD0636803F00C03082B4F
:103EB00024D1636803F4C033B3F5004F1ED102234D
:103EC00093FAA3F2216893FAA3F3B3FA83F303F00E
:103ED0001F03012202FA03F30B4202D0EB68934264
:103EE00084D12168F82393FAA3F3B3FA83F22B6900
:103EF000934021F0F8021343236045E7EA68012666
:103F00000AB396FAA6F3B3FA83F303F1845303F5E5
:103F100084139B0002271E6000F00AFC804697FA7B
:103F2000A7F3226897FAA7F3B3FA83F303F01F030A
:103F300006FA03F31342D4D100F0FAFBA0EB080019
:103F40000228ECD977E796FAA6F3B3FA83F303F1E4
:103F5000845303F584139B0002271A6000F0E8FBEA
:103F6000804697FAA7F3226897FAA7F3B3FA83F388
:103F700003F01F0306FA03F313423FF405AF00F00A
:103F8000D7FBA0EB08000228EBD954E76A69434E3F
:103F9000434901241AB394FAA4F3B3FA83F30B440C
:103FA0009B0002271C6000F0C3FB804697FAA7F332
:103FB00097FAA7F397FAA7F3726A97FAA7F3B3FAF7
:103FC00083F303F01F0304FA03F313427FF4E0AE1C
:103FD00000F0AEFBA0EB08000228E7D92BE794FA2B
:103FE000A4F3B3FA83F30B449B0002271A6000F09A
:103FF0009FFB804697FAA7F397FAA7F397FAA7F3E0
:10400000726A97FAA7F3B3FA83F303F01F0304FA73
:1040100003F313423FF4BCAE00F08AFBA0EB0800B0
:104020000228E7D907E71D4CE369D90034D4E369D6
:1040300043F08053E361E36903F080530193019BF4
:104040000126184F3B68DA052ED5AB68012B3CD111
:10405000236A43F00103236200F06AFB02278246D1
:10406000B9464FF0010897FAA7F397FAA7F3002B88
:104070006BD0226A99FAA9F3B3FA83F303F01F0312
:1040800008FA03F3134257D0002E3FF485AEE369DC
:1040900023F08053E3617FE60026D2E70010024060
:1040A00020819010007000403B6843F480733B60B7
:1040B00000F03EFB80463B68DB05C6D400F038FBD1
:1040C000A0EB08006428F6D9B5E63BBB236A23F0D1
:1040D00001032362236A23F00403236200F028FB18
:1040E00002278246B9464FF0010897FAA7F397FADC
:1040F000A7F373B3226A99FAA9F3B3FA83F303F02F
:104100001F0308FA03F31342BED000F011FB41F283
:104110008833A0EB0A009842E7D98CE6052B236A86
:1041200003D143F00403236292E723F001032362E7
:10413000236A23F004038EE700F0FAFA41F2883391
:10414000A0EB0A0098428ED975E697FAA7F3626A47
:1041500090E797FAA7F3626ACDE7444C636803F0EF
:104160000C03082B3FF442AE022A4FF0807358D163
:1041700093FAA3F3B3FA83F303F1845303F584139F
:104180009B0000221A6000F0D3FA4FF000778046BF
:10419000012697FAA7F3226897FAA7F3B3FA83F3F5
:1041A00003F01F0306FA03F3134233D1E36A6A6A8A
:1041B00023F00F031343E36262682B6AE96922F478
:1041C00076120B43134363604FF0807393FAA3F3AB
:1041D000B3FA83F303F1845303F584139B004FF088
:1041E00000751E6000F0A4FA0126074695FAA5F3B3
:1041F000226895FAA5F3B3FA83F303F01F0306FAD6
:1042000003F313427FF4CCAD00F092FAC01B0228F6
:10421000ECD910E600F08CFAA0EB08000228B8D91F
:1042200009E693FAA3F3B3FA83F303F1845303F596
:1042300084139B0000221A6000F07AFA4FF0007598
:104240000746012695FAA5F3226895FAA5F3B3FA75
:1042500083F303F01F0306FA03F313423FF4A0AD08
:1042600000F066FAC01B0228ECD9E4E50010024019
:1042700011494B6803F00C02082A1AD14FF470124E
:1042800092FAA2F20F20B2FA82F2C96A90FAA0F072
:10429000B0FA80F001F00F0103F47013D340C14075
:1042A000064A0748415C0748B0FBF1F1D05C48433F
:1042B00070470448704700BF00100240046B0008BC
:1042C000146B000800127A005C4A136803F00703BD
:1042D0008B422DE9F04106460D4630D332689107F6
:1042E0003AD4D20740D4554A136803F007039D42DD
:1042F000C0F092803268524C12F0040F40F0978068
:10430000130706D56368326923F4605343EAC20396
:104310006360FFF7ADFF6368F02292FAA2F2B2FA8F
:1043200082F203F0F003D340464AD35CD840464BB8
:1043300018600F20FEF7E8FC0020BDE8F08113684C
:1043400023F007030B431360136803F0070399423C
:10435000C4D00120BDE8F0813949B0684B6823F032
:10436000F00303434B60BCE77268354C012A28D147
:104370004FF4003393FAA3F1216893FAA3F3B3FA4D
:1043800083F303F01F0302FA03F30B42E1D06368E7
:1043900023F003031A43626000F0CAF97368012B2B
:1043A000074641F288381FD1636803F00C03042BE1
:1043B00099D000F0BDF9C01B4045F5D90320BDE8F8
:1043C000F081022A0CBF4FF00073022393FAA3F18D
:1043D000206893FAA3F3B3FA83F303F01F030121D8
:1043E00001FA03F30342D1E7022B10D1636803F013
:1043F0000C03082B3FF477AF00F09AF9C01B40453F
:10440000F4D9DBE700F094F9C01B4045D6D86368C7
:1044100013F00C0FF6D166E7136823F007032B4364
:104420001360136803F007039D4292D162E763684B
:10443000F16823F4E0630B43636061E7002002400E
:1044400000100240EC6A0008B0010020084B4FF455
:10445000E0625B6892FAA2F2B2FA82F203F4E063DD
:10446000D340044AD35C044A1068D840704700BF68
:1044700000100240FC6A0008B0010020084B4FF415
:1044800060525B6892FAA2F2B2FA82F203F46053CD
:10449000D340044AD35C044A1068D840704700BF38
:1044A00000100240FC6A0008B00100200F230360E6
:1044B0000B4B5A6802F0030242605A6802F0F002A5
:1044C00082605A6802F4E062C2605B68DB0803F451
:1044D000E0630361034B1B6803F007030B60704745
:1044E0000010024000200240074AD36823F4E06332
:1044F0001B041B0C43F0BF63000243F4003300F4C1
:10450000E0600343D360704700ED00E00368D3F838
:10451000000270B540F001004C69C3F800020122AE
:10452000D3F81C52A240D0430540C3F81C52CD69B9
:1045300085BBD3F80C52CE680540C3F80C528D8869
:1045400003EBC40445EA0645C4F840528E680D8862
:1045500045EA0645C4F844528C696CBBD3F8044262
:104560000440C3F804420C6954BBD3F81442204001
:10457000C3F81402096A012902BFD3F81C120A43C6
:10458000C3F81C22D3F8002222F00102C3F8002253
:10459000002070BD012DDFD1D3F80C520E681543F9
:1045A000C3F80C528D8803EBC40445EA0645C4F8F1
:1045B00040528E688D89CBE7D3F804421443D0E78C
:1045C000012CD7D1D3F814021043D1E7704770B54E
:1045D0000446002872D090F8393003F0FF021BB96E
:1045E00080F83820FFF7F2FF022384F8393023687F
:1045F0001A6822F002021A601A6842F001021A6078
:1046000000F096F8064623685D6815F0010557D05E
:104610005A68D1074FD5A269012A1A680CBF42F027
:10462000800222F080021A60E269012A1A680CBF37
:1046300042F0400222F040021A60226A012A1A68FF
:104640000CBF42F0200222F020021A60626A012AA6
:104650001A680CBF42F0100222F010021A60A26A1F
:10466000012A1A680CBF42F0080222F008021A6000
:10467000E26A012A1A680CBF42F0040222F0040226
:104680001A60E168A2680A4321690A4361690A4322
:10469000616801390A43DA611A6822F001021A607E
:1046A00000F046F8054623685A68D20713D45868C4
:1046B00010F001001BD0042384F83930012070BDB4
:1046C00000F036F8801B0A289DD9032084F83900B1
:1046D00084F8385070BD00F02BF8401B0A28E2D94E
:1046E0000320002384F8390084F8383070BD01239A
:1046F000E06384F8393070BD70470000074A08B5A0
:10470000136843F0100313600320FFF7EDFE0F2042
:10471000FEF7FAFAFFF7F0FF002008BD0020024084
:10472000024A136801331360704700BF4C27002012
:10473000014B1868704700BF4C27002070470000ED
:10474000324A0368904212D0B0F1804F0FD0A2F5E8
:10475000943290420BD002F58062904207D002F56D
:104760009632904203D002F5E052904215D14A6849
:1047700023F070031343254A90421DD0B0F1804FBF
:104780001AD0A2F59432904216D002F5806290427F
:1047900012D002F5963290420ED01D4A90420BD0B4
:1047A00002F58062904207D002F58062904203D009
:1047B00002F50062904203D1CA6823F440731343A8
:1047C0004A6923F08003134303608B68C3620B685C
:1047D00083620E4B984213D003F5006398420FD0CA
:1047E00003F5406398420BD003F58063984207D0ED
:1047F00003F58063984203D003F50063984201D12A
:104800000B69036301234361704700BF002C014023
:104810000040014010B50446A0B190F83D3003F0CF
:10482000FF021BB980F83C20FFF788FF022384F8C1
:104830003D302068211DFFF783FF012384F83D30C0
:10484000002010BD012010BD036A10B501248C406A
:1048500023EA04030362036A8A401A43026210BD1A
:1048600010B5044601220068FFF7EEFF2368104AE6
:10487000934213D002F5006293420FD002F54062DA
:1048800093420BD002F58062934207D002F580621A
:10489000934203D002F50062934203D15A6C42F472
:1048A00000425A641A6842F001021A60002010BDEA
:1048B000002C0140FFF7D4BF7047000038B5044614
:1048C00005682169A268C36928680A4361690A43C7
:1048D00077491A4301400A432A606A68E168206AFE
:1048E00022F440520A436A60A968A26921F4306147
:1048F00002430A43AA606F4A954212D102F5584218
:104900006D49126B02F00302B3F5004F8A5C66D06A
:10491000082A19D8DFE802F0C2929E18A9181818C0
:10492000AC00664A954224D102F5E632126B02F4DD
:104930004032B2F5803F00F0A08007D8002A00F096
:10494000AA80B3F5004F76D0012038BDB2F5003F04
:1049500000F09980B2F5403FF3D1B3F5004F79D123
:104960006068430803F5740303F51053B3FBF0F3D9
:1049700054E0534A95420ED102F5E432126B02F430
:104980004022B2F5802F78D0D8D9B2F5002F7AD056
:10499000B2F5402FE0E74B4A95420ED102F5E232E4
:1049A000126B02F44012B2F5801F66D0C6D9B2F580
:1049B000001F68D0B2F5401FCEE7434A9542C0D1F0
:1049C00002F5E032126B02F44002B2F5800F54D0CF
:1049D000B4D9B2F5000F56D0B2F5400FBCE7082AA3
:1049E00029D801A353F822F00D4A0008314A0008E3
:1049F00061490008374A0008814A0008374A000820
:104A0000374A0008374A00088D4A0008FFF71EFDA4
:104A100061684A0802EB4003B3FBF1F39BB200204C
:104A200023F00F022168C3F342031343CB6038BD68
:104A3000FFF724FDECE701200023F1E7FFF71EFD5F
:104A4000636800EB5300B0FBF3F01A4B80B2D86000
:104A5000002038BD6268530803F5F40303F5905352
:104A6000B3FBF2F39BB2EB60F2E7FFF701FC17E058
:104A70006268530803F50043F2E7B3F5004FF4D141
:104A8000FFF7F6FBC4E7B3F5004FF1D160684308C8
:104A900003F580336AE7B3F5004FB7D0FFF7D6FCD4
:104AA000636800EB5300B0FBF3F080B2E860CFE73F
:104AB000F369FFEF00380140246B00080044004018
:104AC00000480040004C004000500040436ADA07B4
:104AD00010B506D50168846A4A6822F40032224380
:104AE0004A609C0706D50168C46A4A6822F480328D
:104AF00022434A60590706D50168046B4A6822F4CC
:104B0000802222434A601A0706D50168446B4A682E
:104B100022F4004222434A60DC0606D50168846B19
:104B20008A6822F4805222438A60990606D5016879
:104B3000C46B8A6822F4005222438A605A060FD559
:104B40000168046C4A6822F480122243B4F5801F85
:104B50004A6005D14A68446C22F4C00222434A608C
:104B60001B0606D50268816C536823F400230B43AF
:104B7000536010BD2DE9F041069D04460F461646D0
:104B800098462168CA6937EA02030CBF0122002255
:104B9000B24202D00020BDE8F0816B1CF2D09DB97A
:104BA00023681A6822F4D0721A609A6822F001020F
:104BB0009A60202384F8693084F86A30002384F8EE
:104BC00068300320BDE8F081FFF7B2FDA0EB0800DC
:104BD0008542D6D2E4E773B504460026C666FFF7E1
:104BE000A7FD23681B681A07054617D423681B68AE
:104BF0005B070AD56FF07E43009300222B464FF4EB
:104C000080012046FFF7B6FFA0B92023002084F8DA
:104C1000693084F8680084F86A300CE06FF07E43F5
:104C20000093324603464FF400112046FFF7A2FFDF
:104C30000028DBD0032002B070BD10B5044660B37D
:104C400090F8693003F0FF021BB980F86820FFF785
:104C500033FE2268242384F86930136823F00103AB
:104C600013602046FFF72AFE012816D0636A13B1AD
:104C70002046FFF72BFF23685A6822F490425A60BF
:104C80009A6822F02A029A601A6842F001022046CD
:104C90001A60BDE81040FFF79EBF012010BD4369B8
:104CA000416810B50446194400F07EFA636A04F1C5
:104CB00018001B68BDE81040184738B504460D467B
:104CC000FCF7CEFC204600F075FA65612069FCF720
:104CD00072FC2918204600F067FABDE83840FCF75E
:104CE000D5BC7FB5064606F11804FCF7B9FC6D4645
:104CF000304600F05FFA0023AC4203930BD020460D
:104D0000FBF74DFB3CB1039B1BB15B68694620463A
:104D10009847039B73622846FBF741FBFCF7B6FC00
:104D200004B070BD7047000010B5044600F086F96D
:104D3000014B2360204610BD446B000810B5034BA7
:104D400003600446FCF71AFA204610BD446B0008C5
:104D500010B50446FFF7F2FF204600F0ABFB2046FB
:104D600010BD10B50446FCF77BFC23682BB9E06846
:104D7000FCF721FC012360602360BDE81040FCF7D4
:104D800085BC38B50546FCF76BFC2C6824B1E86897
:104D9000FCF711FC6C68041BFCF778FC204638BD5E
:104DA00038B50546FCF75CFC2846AC68FFF7E9FF20
:104DB0000444FCF76BFC204638BD08B5FFF7F0FF54
:104DC0004FF47A7390FBF3F008BD10B50446FCF77E
:104DD00047FCE068FCF7EFFB00236060A360BDE8E0
:104DE0001040FCF753BC002310B5036043608360A0
:104DF0000446FCF769FBE0602046FFF7E6FF20462B
:104E000010BD704700EB011202F10C0093691B68A2
:104E100018474FF0FF319C3000F070BB9C3000F021
:104E200070BB70B505460E4655F8043B9B680446BA
:104E3000984731462846FEF779F923680546DB682E
:104E400020469847284670BD84B073B5064607AC27
:104E500084E80E0056F8043B9B68054698470023FB
:104E600001930A9B009394E80E003046FEF7A4F9E4
:104E70002B680446DB6828469847204602B0BDE808
:104E8000704004B07047F8B505460E4655F8043B2F
:104E900017469B68044698473A4631462846FEF72F
:104EA000DCF923680546DB68204698472846F8BDAC
:104EB00070B505460E4655F8043B9B680446984776
:104EC00031462846FEF714FA23680546DB6820467B
:104ED0009847284670BD000070B504460D4B44F855
:104EE000043B05462046FEF7FDF8204605F19C04EC
:104EF000FEF706F9204600F007FB15F10C0606D078
:104F0000B44204D0103C2046FBF749FAF8E72846A3
:104F100070BD00BF5C6B000810B50446FFF7DCFFF6
:104F2000204600F0C7FA204610BD884238B5044636
:104F30000D460AD0FBF733FA3CB1EB681BB15B6856
:104F4000294620469847EB68E360204638BD0000BC
:104F50002DE9FF471A4B0360174600F10C030022AE
:104F600004460E464260826000F19C081D46DA60ED
:104F700010334345FBD1404600F0A8FADFF848A0C3
:104F8000DFF8489045450CD069462846CDF800A08A
:104F9000CDF80C90FFF7C9FF6846FBF700FA103513
:104FA000F0E7251D3A4631462846FEF70BFA28461B
:104FB00022460449FEF78AF8204604B0BDE8F0878F
:104FC0005C6B0008054E0008034E000850650008A1
:104FD00070477047704700EB011202F19800D2F859
:104FE000A4301B68184710B480B1146853680CB91A
:104FF000DA070BD513F0010F4FEA63031CBFC25849
:105000001459184423465DF8044B18475DF8044BC7
:10501000704770B50546044655F84C3B0E461B6874
:10502000984728463146FEF7DDFC2368C4F8B8608F
:1050300020465B68BDE87040184700002DE9F0434A
:1050400087B00025914600950246019504468846A2
:105050001F469DE80300274B42F8083B264B82E899
:105060000300236148F207036361244BE561A461F7
:1050700022626362BFF36F8FBFF34F8F04F14C0660
:105080004C226563656484F8485084F84950304682
:1050900000F06BFD02A9C4F8A450C4F8B450C4F8E1
:1050A000B870174D174F029704F198000595FFF758
:1050B0003CFF02A8FBF773F902A904F1A8000297CC
:1050C0000595FFF732FF02A8FBF769F94A4641460A
:1050D0003046FEF79BFBD4F8B8103046FEF782FC52
:1050E000304622460849FEF781FC204607B0BDE85D
:1050F000F08300BF746B000801A090E8E74F000840
:1051000050650008D14F0008D74F00082DE9FF4136
:105110000546884655F84C3B1B680446164698479A
:10512000FCF79EFAD8F80C70300197B198304146E0
:105130002044FFF7FAFE012231462846FEF762FCC2
:10514000FCF7A4FA236820465B68984704B0BDE8E2
:10515000F081074B00939830064B03936946204437
:10516000FFF7E3FE6846FBF71AF93A46E4E700BFAB
:10517000D14F00085065000803689B68184700007D
:10518000074B10B50360002343608360C36004468F
:10519000FCF79AF903492061FCF7A0F9204610BDFD
:1051A0008C6B00087951000803460A46011D00690E
:1051B000FCF7C0B9011D0069FCF7DDB910B5034B60
:1051C00003600446FFF7F6FF204610BD8C6B000815
:1051D00038B5044648B15830A04206D0A0F12C059D
:1051E0001438FBF7C2FF2846F6E7204638BD00001A
:1051F00070B50E4C2046002528263246294640F838
:10520000045B00F0B2FC3246294604F13000E5624E
:1052100000F0ABFCA5652046E565054A84F86050C2
:105220000449BDE8704000F027B900BF041D00200C
:1052300094010020D151000800F0EEBC00F04ABDFE
:1052400000F09CBC70B50546FEF73CF94FF47A744B
:1052500095FBF4F4002C064602DDFCF7FBF928B9B7
:10526000FEF730F9801BA842FAD370BD204600F04B
:105270002BF9F5E74FF47A735843FFF7E3BF0000CB
:1052800008B5084B1B685BB9022107480322FEF7EB
:10529000BDFA4FF416510448BDE80840FEF7A2BB22
:1052A00008BD00BFD01A002000270020022810B53A
:1052B000044601DC002010BD00F016FA092303604B
:1052C000033C094B53F82400002243F8242040B14A
:1052D00003681B699847041EECDA00F005FA644283
:1052E00004604FF0FF3010BD681D0020F8B5054682
:1052F0000E46144600F0F8F90923022D03600FDC76
:10530000124B1B680BB9FFF7BBFF35463719104E20
:10531000BD4215D015F8011B3046FEF70DFCF7E72E
:10532000033D0C4B53F8250060B103682246DB684F
:1053300031469847041E03DA00F0D6F96342036051
:105340002046F8BD4FF0FF34FAE700BFD01A002026
:1053500000270020681D002070B504460D46164643
:1053600000F0C2F90923022C03600BDC0F4B1B6811
:105370000BB9FFF785FF0E48FEF7BCFB0124287030
:10538000204670BD033C0B4B53F8240058B1036812
:1053900032469B6829469847041EF1DA00F0A4F9CA
:1053A00063420360ECE74FF0FF34E9E7D01A0020D6
:1053B00000270020681D002070B504460D461646E3
:1053C00000F092F90923022C03600BDD033C084B2B
:1053D00053F8240040B1036832462946DB69BDE832
:1053E00070401847002070BD4FF0FF3070BD00BF07
:1053F000681D002008B5FEF7B5FBFCF7C5FA08BD2F
:10540000704708B5FFF7FCFFBDE80840FBF784BC18
:105410000C4A136810B51844EFF30881884205D38D
:10542000094B0C221A604FF0FF3010BD07490C6881
:1054300024B10749096821448842F1D21060184616
:1054400010BD00BFB401002050270020681E0020BE
:105450006C1E0020074C08B523680546986800F0CC
:10546000FBF92368D86800F0F7F90DB1FCF727F9CC
:10547000FEE700BFB80100200120704708B5FFF724
:10548000E9FF08B5FCF78EFA08BD08B5FCF792FAFB
:1054900008BD000010B500F0DFFA044610B902485C
:1054A000FCF708F9204610BD986B000808B100F021
:1054B000DBBA7047FFF7FABF024B1B6803B118470E
:1054C000704700BF701E0020FCF74ABE38B500F1DF
:1054D0000805044610220021284600F046FB20461D
:1054E00040F8045FFCF7AEFE206010B90248FCF7FC
:1054F000E1F8204638BD00BFB76B00080068FCF734
:10550000BFBE0068FCF7E4BE10B504460068FCF7B7
:1055100025FF204610BD000080F309887047EFF397
:1055200009807047684680F309885A480078C007A8
:1055300014BF0220032080F314887047DFF858C19D
:10554000EFF305831B0618BF6047EFF31483DB07F7
:1055500008BF604700DF7047DFF840C1EFF3058305
:105560001B0618BF6047EFF31483DB0708BF6047D3
:1055700000DF7047EFF30980816911F8021CE1BB7D
:1055800090E80F1010B5E047BDE81040EFF3098C2C
:105590008CE80700424B93E80600914208BF704731
:1055A00041B91EF0100F16D13E49086820F00100E5
:1055B000086010E01EF0100F06BF2CED108A0120CD
:1055C000002081F825002CE9F00FC1F82CC00CB4A4
:1055D000FCF7DCFA0CBC1A60D2F82CC0BCE8F00F67
:1055E00092F8250000280EBF6FF0020E6FF0120E29
:1055F000BCEC108A8CF30988704710B52A4A1268EF
:10560000914209D8294C54F8214090E80F10A04746
:10561000EFF3098C8CE80F0010BD10B5FCF742FACF
:10562000BDE810401E4B93E80600914208BF70474A
:10563000EFF3098C1EF0100F06BF2CED108A01202D
:10564000002081F825002CE9F00FC1F82CC00CB423
:10565000FCF79CFA0CBC1A60D2F82CC0BCE8F00F26
:1056600092F8250000280EBF6FF0020E6FF0120EA8
:10567000BCEC108A8CF30988704710B5FCF768FA07
:10568000FFF7CEBF10B5FCF761FAFCF761FAFFF740
:10569000C7BF000016680008FB1B0008151C0008A7
:1056A0007426002034EF00E000000000FCFFFFFF44
:1056B000DFF820D0002103E0074B5B584350043152
:1056C0000648074B42189A42F6D3FEF7DBFAFBF77F
:1056D000BDFCFEE700000120806C00089401002062
:1056E00030020020FEE70000014B1868704700BF41
:1056F000B80100208A892DE9F041054610070C46C3
:105700005AD44B68002B05DC0B6C002B02DC00200C
:10571000BDE8F081E66A002EF9D0002312F4805231
:105720002F682B6033D0606DA3895A0705D5636855
:10573000C01A636B0BB1236CC01A00230246E66AE1
:10574000216A2846B047431CA38906D129681D2930
:105750004BD82B4ACA40D60747D500226260D904ED
:105760002269226004D5421C01D12B6803B960650F
:10577000616B2F600029CAD004F14403994202D022
:105780002846FFF75DFD00206063BDE8F081216AD7
:1057900001232846B047411CC6D12B68002BC3D03B
:1057A0001D2B01D0162B01D12F60B0E7A38943F048
:1057B0004003A381BDE8F0810F69002FA7D09307B4
:1057C0000E6808BF4B690F6018BF0023A6EB0708DF
:1057D0008B60B8F1000F9ADD43463A46216AA66A0B
:1057E0002846B047002807DCA38943F04003A38183
:1057F0004FF0FF30BDE8F0810744A8EB0008E8E770
:105800000100402038B50B6905460C46DBB118B1E4
:1058100083690BB900F072F80C4B9C4209D16C689B
:10582000B4F90C307BB121462846BDE83840FFF77B
:1058300061BF074B9C4201D1AC68F1E7054B9C422C
:1058400008BFEC68ECE7002038BD00BFFC6B000827
:105850001C6C0008DC6B0008014620B9044B0549AC
:10586000186800F0B7B8044B1868FFF7CBBF00BF4B
:105870003C6C000805580008B8010020014900F000
:10588000A9B800BF05580008002310B504460360FE
:105890004360836081814366C281036143618361A8
:1058A000194608225C3000F060F9054B6362054B35
:1058B000A362054BE362054B2462236310BD00BF66
:1058C0007D6000089F600008D7600008FB6000084A
:1058D00070B54A1E682555430E4605F17401FFF761
:1058E000ABFC044640B1002180E842000C30A060CF
:1058F00005F1680200F039F9204670BD836910B5E2
:10590000044633BB8364C3640365124B124A1B68AD
:105910008262984204BF0123836100F01FF8606037
:10592000204600F01BF8A060204600F017F8002287
:10593000E06004216068FFF7A7FF01220921A06849
:10594000FFF7A2FF02221221E068FFF79DFF01236B
:10595000A36110BD3C6C00087D580008F8B51C4BD5
:105960001E68B369074613B93046FFF7C7FF4836CC
:10597000B4687368013B03D5336833B13668F7E721
:10598000B4F90C506DB16834F4E704213846FFF7E0
:105990009FFF30600028F1D10C233B600446204675
:1059A000F8BD4FF6FF73E3810123A381656625608F
:1059B000A560656025616561A5610822294604F13D
:1059C0005C0000F0D2F86563A563A564E564E6E7D2
:1059D0003C6C00082DE9F8438046894600F14804F4
:1059E000002614B93046BDE8F883A5686768013F12
:1059F00001D52468F5E7AB89012B07D9B5F90E303D
:105A0000013303D029464046C84706436835EEE7D0
:105A100070B50D4E0D4CA41BA4100025A54209D154
:105A20000B4E0C4C00F036FDA41BA4100025A54223
:105A300005D170BD56F8253098470135EEE756F888
:105A4000253098470135F2E71C0200201C02002097
:105A50001C02002028020020024B01461868FFF7B4
:105A6000EBBB00BFB8010020024B01461868FFF7EE
:105A7000E7BB00BFB80100200000000000000000EC
:105A800001F0FF01102A2BDB10F0070F08D010F8EF
:105A9000013B013A8B422DD010F0070F42B3F6D1F3
:105AA000F0B441EA012141EA014122F007047FF00C
:105AB00000070023F0E80256083C85EA010586EA63
:105AC000010685FA47F5A3FA87F586FA47F6A5FA9F
:105AD00087F68EB9EED1F0BC01F0FF0102F00702AB
